{
  "address": "0x3A65D742A3C78aE305AEA88425aaB6f7511A3C00",
  "abi": [
    {
      "inputs": [
        {
          "internalType": "address",
          "name": "vrfCoordinatorV2",
          "type": "address"
        },
        {
          "internalType": "uint256",
          "name": "minFee",
          "type": "uint256"
        },
        {
          "internalType": "bytes32",
          "name": "keyHash",
          "type": "bytes32"
        },
        {
          "internalType": "uint32",
          "name": "subscriptionId",
          "type": "uint32"
        },
        {
          "internalType": "uint32",
          "name": "callbackGasLimit",
          "type": "uint32"
        }
      ],
      "stateMutability": "nonpayable",
      "type": "constructor"
    },
    {
      "inputs": [
        {
          "internalType": "address",
          "name": "have",
          "type": "address"
        },
        {
          "internalType": "address",
          "name": "want",
          "type": "address"
        }
      ],
      "name": "OnlyCoordinatorCanFulfill",
      "type": "error"
    },
    {
      "inputs": [],
      "name": "lottery__NotEnoughETH",
      "type": "error"
    },
    {
      "inputs": [],
      "name": "lottery__transferFailed",
      "type": "error"
    },
    {
      "anonymous": false,
      "inputs": [
        {
          "indexed": true,
          "internalType": "address",
          "name": "player",
          "type": "address"
        }
      ],
      "name": "LotteryEnter",
      "type": "event"
    },
    {
      "anonymous": false,
      "inputs": [
        {
          "indexed": true,
          "internalType": "uint256",
          "name": "requestId",
          "type": "uint256"
        }
      ],
      "name": "RequestedLotteryWinner",
      "type": "event"
    },
    {
      "anonymous": false,
      "inputs": [
        {
          "indexed": true,
          "internalType": "address",
          "name": "winner",
          "type": "address"
        }
      ],
      "name": "WinnerSelected",
      "type": "event"
    },
    {
      "inputs": [],
      "name": "enterLottery",
      "outputs": [],
      "stateMutability": "payable",
      "type": "function"
    },
    {
      "inputs": [],
      "name": "getEntranceFee",
      "outputs": [
        {
          "internalType": "uint256",
          "name": "",
          "type": "uint256"
        }
      ],
      "stateMutability": "view",
      "type": "function"
    },
    {
      "inputs": [
        {
          "internalType": "uint256",
          "name": "index",
          "type": "uint256"
        }
      ],
      "name": "getPlayers",
      "outputs": [
        {
          "internalType": "address",
          "name": "",
          "type": "address"
        }
      ],
      "stateMutability": "view",
      "type": "function"
    },
    {
      "inputs": [],
      "name": "getWinner",
      "outputs": [
        {
          "internalType": "address",
          "name": "",
          "type": "address"
        }
      ],
      "stateMutability": "view",
      "type": "function"
    },
    {
      "inputs": [
        {
          "internalType": "uint256",
          "name": "requestId",
          "type": "uint256"
        },
        {
          "internalType": "uint256[]",
          "name": "randomWords",
          "type": "uint256[]"
        }
      ],
      "name": "rawFulfillRandomWords",
      "outputs": [],
      "stateMutability": "nonpayable",
      "type": "function"
    },
    {
      "inputs": [],
      "name": "requestRandomWinner",
      "outputs": [],
      "stateMutability": "nonpayable",
      "type": "function"
    }
  ],
  "transactionHash": "0x9f796684fc70e0fe9f217da1d15dec10ffc7766af83714f18594b1fc735a4d49",
  "args": [
    "0x6168499c0cFfCaCD319c818142124B7A15E857ab",
    "10000000000000000",
    "0xd89b2bf150e3b9e13446986e571fb9cab24b13cea0a43ea20a6049a85cc807cc",
    6637,
    100000
  ],
  "numDeployments": 1,
  "solcInputHash": "ac2f740f5c3fc3a02fd8aadb25bd27f9",
  "bytecode": "0x6101406040523480156200001257600080fd5b5060405162000fbf38038062000fbf833981810160405281019062000038919062000208565b848073ffffffffffffffffffffffffffffffffffffffff1660808173ffffffffffffffffffffffffffffffffffffffff1681525050508473ffffffffffffffffffffffffffffffffffffffff166101208173ffffffffffffffffffffffffffffffffffffffff16815250508360a081815250508260c081815250508163ffffffff1660e08163ffffffff16815250508063ffffffff166101008163ffffffff1681525050505050505062000290565b600080fd5b600073ffffffffffffffffffffffffffffffffffffffff82169050919050565b60006200011982620000ec565b9050919050565b6200012b816200010c565b81146200013757600080fd5b50565b6000815190506200014b8162000120565b92915050565b6000819050919050565b620001668162000151565b81146200017257600080fd5b50565b60008151905062000186816200015b565b92915050565b6000819050919050565b620001a1816200018c565b8114620001ad57600080fd5b50565b600081519050620001c18162000196565b92915050565b600063ffffffff82169050919050565b620001e281620001c7565b8114620001ee57600080fd5b50565b6000815190506200020281620001d7565b92915050565b600080600080600060a08688031215620002275762000226620000e7565b5b600062000237888289016200013a565b95505060206200024a8882890162000175565b94505060406200025d88828901620001b0565b93505060606200027088828901620001f1565b92505060806200028388828901620001f1565b9150509295509295909350565b60805160a05160c05160e0516101005161012051610cd1620002ee600039600061026a015260006102ea015260006102c7015260006102a601526000818161013b01526103db01526000818161016101526101b50152610cd16000f3fe6080604052600436106100555760003560e01c806309bc33a71461005a5780631fe543e314610085578063460e2049146100ae578063522a1f0b146100eb5780638e7ea5b214610102578063c1af57851461012d575b600080fd5b34801561006657600080fd5b5061006f610137565b60405161007c919061079a565b60405180910390f35b34801561009157600080fd5b506100ac60048036038101906100a7919061094e565b61015f565b005b3480156100ba57600080fd5b506100d560048036038101906100d091906109aa565b61021f565b6040516100e29190610a18565b60405180910390f35b3480156100f757600080fd5b50610100610266565b005b34801561010e57600080fd5b506101176103af565b6040516101249190610a18565b60405180910390f35b6101356103d9565b005b60007f0000000000000000000000000000000000000000000000000000000000000000905090565b7f000000000000000000000000000000000000000000000000000000000000000073ffffffffffffffffffffffffffffffffffffffff163373ffffffffffffffffffffffffffffffffffffffff161461021157337f00000000000000000000000000000000000000000000000000000000000000006040517f1cf993f4000000000000000000000000000000000000000000000000000000008152600401610208929190610a33565b60405180910390fd5b61021b82826104db565b5050565b600080828154811061023457610233610a5c565b5b9060005260206000200160009054906101000a900473ffffffffffffffffffffffffffffffffffffffff169050919050565b60007f000000000000000000000000000000000000000000000000000000000000000073ffffffffffffffffffffffffffffffffffffffff16635d3b1d307f00000000000000000000000000000000000000000000000000000000000000007f000000000000000000000000000000000000000000000000000000000000000060037f000000000000000000000000000000000000000000000000000000000000000060016040518663ffffffff1660e01b815260040161032b959493929190610b60565b602060405180830381600087803b15801561034557600080fd5b505af1158015610359573d6000803e3d6000fd5b505050506040513d601f19601f8201168201806040525081019061037d9190610bc8565b9050807febf56642252004c18a776f30d528e7a0ce8c5db14b6596fb6550f630c8a24c6c60405160405180910390a250565b6000600160009054906101000a900473ffffffffffffffffffffffffffffffffffffffff16905090565b7f0000000000000000000000000000000000000000000000000000000000000000341015610433576040517f38a29b9700000000000000000000000000000000000000000000000000000000815260040160405180910390fd5b6000339080600181540180825580915050600190039060005260206000200160009091909190916101000a81548173ffffffffffffffffffffffffffffffffffffffff021916908373ffffffffffffffffffffffffffffffffffffffff1602179055503373ffffffffffffffffffffffffffffffffffffffff167f1d64fb5ba9f2548c5b98468d58f25b87b9e866afee0122e92d9fe722bf85076c60405160405180910390a2565b60008080549050826000815181106104f6576104f5610a5c565b5b60200260200101516105089190610c24565b9050600080828154811061051f5761051e610a5c565b5b9060005260206000200160009054906101000a900473ffffffffffffffffffffffffffffffffffffffff16905080600160006101000a81548173ffffffffffffffffffffffffffffffffffffffff021916908373ffffffffffffffffffffffffffffffffffffffff160217905550600067ffffffffffffffff8111156105a8576105a761080b565b5b6040519080825280602002602001820160405280156105d65781602001602082028036833780820191505090505b50600090805190602001906105ec9291906106da565b5060008173ffffffffffffffffffffffffffffffffffffffff164760405161061390610c86565b60006040518083038185875af1925050503d8060008114610650576040519150601f19603f3d011682016040523d82523d6000602084013e610655565b606091505b5050905080610690576040517f6039def900000000000000000000000000000000000000000000000000000000815260040160405180910390fd5b8173ffffffffffffffffffffffffffffffffffffffff167f1d4c260f1824cd028e6c9e6e31c3a0b94f2513e7a641113ec759d382f9bdd5a160405160405180910390a25050505050565b828054828255906000526020600020908101928215610753579160200282015b828111156107525782518260006101000a81548173ffffffffffffffffffffffffffffffffffffffff021916908373ffffffffffffffffffffffffffffffffffffffff160217905550916020019190600101906106fa565b5b5090506107609190610764565b5090565b5b8082111561077d576000816000905550600101610765565b5090565b6000819050919050565b61079481610781565b82525050565b60006020820190506107af600083018461078b565b92915050565b6000604051905090565b600080fd5b600080fd5b6107d281610781565b81146107dd57600080fd5b50565b6000813590506107ef816107c9565b92915050565b600080fd5b6000601f19601f8301169050919050565b7f4e487b7100000000000000000000000000000000000000000000000000000000600052604160045260246000fd5b610843826107fa565b810181811067ffffffffffffffff821117156108625761086161080b565b5b80604052505050565b60006108756107b5565b9050610881828261083a565b919050565b600067ffffffffffffffff8211156108a1576108a061080b565b5b602082029050602081019050919050565b600080fd5b60006108ca6108c584610886565b61086b565b905080838252602082019050602084028301858111156108ed576108ec6108b2565b5b835b81811015610916578061090288826107e0565b8452602084019350506020810190506108ef565b5050509392505050565b600082601f830112610935576109346107f5565b5b81356109458482602086016108b7565b91505092915050565b60008060408385031215610965576109646107bf565b5b6000610973858286016107e0565b925050602083013567ffffffffffffffff811115610994576109936107c4565b5b6109a085828601610920565b9150509250929050565b6000602082840312156109c0576109bf6107bf565b5b60006109ce848285016107e0565b91505092915050565b600073ffffffffffffffffffffffffffffffffffffffff82169050919050565b6000610a02826109d7565b9050919050565b610a12816109f7565b82525050565b6000602082019050610a2d6000830184610a09565b92915050565b6000604082019050610a486000830185610a09565b610a556020830184610a09565b9392505050565b7f4e487b7100000000000000000000000000000000000000000000000000000000600052603260045260246000fd5b6000819050919050565b610a9e81610a8b565b82525050565b600063ffffffff82169050919050565b600067ffffffffffffffff82169050919050565b6000819050919050565b6000610aed610ae8610ae384610aa4565b610ac8565b610ab4565b9050919050565b610afd81610ad2565b82525050565b600061ffff82169050919050565b610b1a81610b03565b82525050565b610b2981610aa4565b82525050565b6000610b4a610b45610b4084610b03565b610ac8565b610aa4565b9050919050565b610b5a81610b2f565b82525050565b600060a082019050610b756000830188610a95565b610b826020830187610af4565b610b8f6040830186610b11565b610b9c6060830185610b20565b610ba96080830184610b51565b9695505050505050565b600081519050610bc2816107c9565b92915050565b600060208284031215610bde57610bdd6107bf565b5b6000610bec84828501610bb3565b91505092915050565b7f4e487b7100000000000000000000000000000000000000000000000000000000600052601260045260246000fd5b6000610c2f82610781565b9150610c3a83610781565b925082610c4a57610c49610bf5565b5b828206905092915050565b600081905092915050565b50565b6000610c70600083610c55565b9150610c7b82610c60565b600082019050919050565b6000610c9182610c63565b915081905091905056fea26469706673582212201df22d1cf0484beb725308d5f7130620ef368b467732578f28bb8db583f97bb464736f6c63430008090033",
  "devdoc": {
    "kind": "dev",
    "methods": {},
    "version": 1
  },
  "userdoc": {
    "kind": "user",
    "methods": {},
    "version": 1
  },
  "storageLayout": {
    "storage": [
      {
        "astId": 168,
        "contract": "contracts/lottery.sol:lottery",
        "label": "s_players",
        "offset": 0,
        "slot": "0",
        "type": "t_array(t_address_payable)dyn_storage"
      },
      {
        "astId": 185,
        "contract": "contracts/lottery.sol:lottery",
        "label": "s_Winner",
        "offset": 0,
        "slot": "1",
        "type": "t_address"
      }
    ],
    "types": {
      "t_address": {
        "encoding": "inplace",
        "label": "address",
        "numberOfBytes": "20"
      },
      "t_address_payable": {
        "encoding": "inplace",
        "label": "address payable",
        "numberOfBytes": "20"
      },
      "t_array(t_address_payable)dyn_storage": {
        "base": "t_address_payable",
        "encoding": "dynamic_array",
        "label": "address payable[]",
        "numberOfBytes": "32"
      }
    }
  }
}